:020000041000EA
:10000000002008205B0100101B0100101D010010E2
:100010001101001011010010110100101101001058
:100020001901001019010010190100101F01001022
:10003000110100101901001021010010230100100E
:100040001101001011010010110100101101001028
:100050001101001011010010110100101101001018
:100060001101001011010010110100101101001008
:1000700011010010110100101101001011010010F8
:1000800011010010110100101101001011010010E8
:1000900011010010110100101101001011010010D8
:1000A00011010010110100101101001011010010C8
:1000B00011010010110100101101001011010010B8
:1000C00011010010110100101101001011010010A8
:1000D0001101001011010010110100101101001098
:1000E0001101001011010010110100101101001088
:1000F0001101001011010010110100101101001078
:100100001101001011010010110100101101001067
:10011000EFF30580103800BE00BE00BE00BE00BE7A
:1001200000BE00BEF2EB887108E6001028E6001061
:100130009C01001090A31AE7D3DEFFFF42012110BB
:10014000FF010000D0030100793512AB00201E49E9
:10015000086006C881F3088810474FF050400068D7
:1001600008B10020F3E70DA40ECC002902D000F066
:1001700012F8F9E71549164A002000E001C1914242
:10018000FCD114498847144988471449884700BE60
:10019000FDE701C901C29A42FBD3704728E600106F
:1001A00010010020F01F00200805011000000820A9
:1001B0000000082008050110001008200010082089
:1001C000000000007047000008ED00E0F01F002074
:1001D000282C0020ED3C0010E1010010E53C00104F
:1001E0002DE9F04FD9B003F0A1FE4FF4FA6001F011
:1001F000ABFCAB4803F0DEFE01200CF04BFE002808
:1002000062DBA84803F0D6FE0E2000F051FE4FF04E
:1002100001040E2344EC443044EC40300F2000F045
:1002200047FE0F2344EC44304FF0000545EC4030CE
:10023000082000F03DFE082445EC44400022012146
:10024000204600F021FE9849984806F06FF90321F6
:10025000042000F0FBFD0321052000F0F7FD002243
:100260000121042000F010FE00220121052000F0F1
:100270000BFE8E4915A800F087FD1BA815A900F0FC
:1002800085FD1BA800F0BEF938B9894803F092FE3D
:100290004FF47A7001F058FCFAE7864803F08AFEC2
:1002A0003AA91BA800F0E8F9B0B1834803F082FE38
:1002B0001BA800F0C9FBB8B9804803F07BFE4FF4DF
:1002C0007A7001F041FCFAE77D4803F073FE4FF4C9
:1002D0007A7001F039FCFAE77A4803F06BFE4FF4CC
:1002E0007A7001F031FCFAE7774803F063FE1BA84F
:1002F00000F0BAFB70B1754803F05CFE1BA800F07B
:10030000CBFB78B9724803F055FE4FF47A7001F0D8
:100310001BFCFAE76F4803F04DFE4FF47A7001F0D2
:1003200013FCFAE76C4803F045FE1BA800F064FCE0
:1003300038B96A4803F03EFE4FF47A7001F004FCCD
:10034000FAE7674803F036FE1BA800F06BFC38B9EB
:10035000644803F02FFE4FF47A7001F0F5FBFAE7E2
:10036000614803F027FE002321466048169303F0FE
:10037000A1FE00231D469A460DF1580B4FF0504246
:10038000526882F48074D205C4F300241AD4CBB925
:1003900095F0010540F0C180BAF1000F40F0F08007
:1003A000534803F007FE534926A800F037FD002804
:1003B00040F0EB80504803F0FDFD4FF0000A0F23A2
:1003C00045EC4030002D53D019A91BA800F030F99E
:1003D000002852D01A983AA900F020FA804689469F
:1003E00019983AA900F05CFA06460F461BA81EA908
:1003F00000F062FB002849D02CA91EA800F090FB59
:1004000017A91BA800F02CFC00287DD017A826A94E
:1004100000F03AFC42464B46DDE92A89CDE9006707
:10042000CDE91289DDE928893448CDE91089DDE973
:100430002689CDE90E89DDE93889CDE90C89DDE928
:100440003689CDE90A89DDE93489CDE90889DDE914
:100450003089CDE90689DDE92E89CDE90489DDE918
:100460002C89CDE9028903F025FEBAF1000F5FD196
:10047000322001F069FB234680E7214803F09AFD12
:100480004FF47A7001F060FB234677E71D4803F0D4
:1004900091FD4FF47A7001F057FB23466EE700BFE1
:1004A000F0D9001030DA0010801A0600581A002027
:1004B0004CDA001080DA0010D0DA0010F4DA001004
:1004C0000CDA0010A0DA001024DB001074DB00103E
:1004D00094DB001040DB0010B4DB0010C8DB001020
:1004E000FCDB00101CDC00103CDC001054DC0010B5
:1004F000F8DC0010B0DC001090DD0010F0DD001022
:10050000B4DD0010C8DD0010364803F053FD4FF491
:100510007A7001F019FB234630E75846324900F063
:1005200043FC8246002855D0304803F043FD46E79F
:1005300001F012FC4FF47A7200294FD000230DF025
:100540000FFA034639463046229301F06DFF23909F
:10055000DDE9300101F068FF40F20113ADF894309D
:100560000023249022A9DBF800008DF8963000F0DB
:1005700033FC00287FF47CAF1D4803F01BFD77E7B8
:10058000DBF8000000F040FC0AE71A4803F012FD17
:10059000002611E02E980DF0E7F902460B462D9843
:1005A000CDE902230DF0E0F92C9ACDE900013146A6
:1005B000114803F07FFD013626982CA900F018FCA5
:1005C0000028E7D131460D4803F074FD269800F06D
:1005D0001BFCF2E60A4803F0EDFCEEE6B0FBF2F39A
:1005E000B0E700BFDCDD0010B0DC00108CDC0010D8
:1005F00080DE001020DD001048DD001070DD0010EE
:10060000C0DC001030B50125002285B004687721D8
:100610000DF10F0300958DF80F20A04730B19DF824
:100620000F00A0F15000B0FA80F0400905B030BDD5
:1006300070B5062684B00C4605680422772102AB0B
:100640000096A847A8B19DF80A209DF80910120449
:1006500042EA01229DF808109DF80D300A439DF8EA
:100660000C101B0443EA01239DF80B1022600B437E
:10067000636004B070BD00BF2DE9F04F152691B046
:1006800005680C46312277210AAB0096A84705463B
:10069000002800F0A9809DF93230BDF83320BDF864
:1006A00035109DF93760049309929DF93830BDF9F2
:1006B000392008919DF93B10BDF828000596069356
:1006C0000392079101F0D0FE0022494B01F03AFE5F
:1006D000BDF82AB0C4E90001584601F0C5FE002269
:1006E000444B01F02FFE9DF92CA0C4E902015046B5
:1006F00001F0A8FE0022404B01F024FEBDF92D9030
:10070000C4E90401A9F5804001F09CFE00223B4BA6
:1007100001F018FEBDF92F80C4E90601A8F580405C
:1007200001F090FE0022364B01F00CFE9DF9317075
:10073000C4E90801384601F085FE0022314B01F082
:1007400001FEC4E90A01049801F07CFE00222E4B50
:1007500001F0F8FDC4E90C01099801F085FE0022C2
:100760002A4B01F0EFFD9DF93C60C4E90E010898A9
:1007700001F07AFE0022264B01F0E4FDC4E91001ED
:10078000059801F05FFE0022224B01F0DBFDC4E979
:100790001201069801F056FE00224FF07C5301F042
:1007A000D1FDC4E91401039801F04CFE0022124B64
:1007B00001F0C8FDC4E91601079801F043FE0022CC
:1007C0000D4B01F0BFFD02460B463046C4E918232D
:1007D00001F038FE0022104B01F0B4FD002200238E
:1007E000C4E91A01C4E91C23284611B0BDE8F08F02
:1007F000000070400000103E0000F03C0000B03EE1
:100800000000203E0000F03D0000A03D0000204020
:100810000000903F0000703F0000E03BD0B50C4668
:1008200001F022FED4E9002301F078FD02460B46D8
:1008300006460F4601F086FDD4E9042301F082FD4F
:1008400002460B463046394616461F46D4E9022377
:1008500001F078FD02460B463046394601F04AFD6C
:1008600000220D4B06460F4601F046FE68B90022F5
:1008700030463946094B01F07BFE08B10026074F90
:10088000C4E91C6730463946D0BD0026024F3046C9
:10089000C4E91C673946D0BD000044C00040554043
:1008A0002DE9D04FD1E91C6788B00C46804632460E
:1008B0003B463046394601F045FD82468B4652465E
:1008C0005B463046394601F03DFD02460B46404648
:1008D000CDE9022301F0C8FD02460B46CDE9002315
:1008E00001F030FDD4E90823CDE904013046394652
:1008F00001F028FDD4E9062301F0FCFCD4E90A2329
:10090000804689465046594601F01CFD02460B467A
:100910004046494601F0EEFCD4E90C238046894666
:10092000DDE9020101F00EFD02460B464046494654
:1009300001F0E0FCDDE9002301F004FDD4E910231F
:10094000CDE906013046394601F0FCFCD4E90E231E
:1009500001F0D0FCD4E9122380468946504659461E
:1009600001F0F0FC02460B464046494601F0C2FC4D
:10097000D4E9142380468946DDE9020101F0E2FC56
:1009800002460B464046494601F0B4FC02460B467F
:10099000DDE9060101F0AEFC02460B463046394661
:1009A00016461F46D4E9182301F0CCFCD4E91623DF
:1009B00001F0A0FCDDE904AB52465B4601F0C2FC4D
:1009C000524680468946DDE900015B4601F0BAFCEB
:1009D000D4E91A2301F0B6FC02460B4640464946CC
:1009E00001F088FC02460B463046394601F082FC95
:1009F00011A3D3E9002306460F4601F07DFD60B93F
:100A00000FA3D3E900233046394601F0B1FD50B9B8
:100A10003046394608B0BDE8D08F07A1D1E90001C2
:100A200008B0BDE8D08F06A1D1E9000108B0BDE84B
:100A3000D08F00BFAFF3008000000000004CDD400D
:100A4000000000008084FE4030B501254FF0330CDB
:100A500085B044681B2277210DF10F0300958DF8B6
:100A60000FC0A04705B030BD30B501254FF0000CD8
:100A700085B00468752268210DF10F0300958DF88B
:100A80000FC0A04730B19DF80F00A0F17200B0FA7E
:100A900080F0400905B030BD30B501254FF0000CA5
:100AA00085B044686B2268210DF10F0300958DF825
:100AB0000FC0A04705B030BD70B50E2686B00C46FD
:100AC00005683B22682102AB0096A84728B30023A3
:100AD000BDF81010BDF8085049BA21811946BDF87B
:100AE0000CC0BDF80AE0BDF80E206DBA9CFA9CFC63
:100AF0009EFA9EFE65F30F0352BA6EF31F436CF32A
:100B00000F0162F31F412360BDF81220BDF81430BD
:100B100052BA5BBA61606281A38106B070BD00BF4A
:100B200038B50546B0F900000C4601F08BFC0022F8
:100B30002F4B01F007FC02460B46B5F90200C4E951
:100B4000002301F07FFC0022294B01F0FBFB024651
:100B50000B46B5F90400C4E9022301F073FC00223E
:100B6000234B01F0EFFB02460B46B5F90600C4E942
:100B7000042301F067FC00221E4B01F007FC18A3C0
:100B8000D3E9002301F0B6FB02460B46B5F9080095
:100B9000C4E9062301F056FC13A3D3E9002301F0B6
:100BA000F5FB02460B46B5F90A00C4E9082301F03B
:100BB00049FC0DA3D3E9002301F0E8FB02460B46F4
:100BC000B5F90C00C4E90A2301F03CFC06A3D3E903
:100BD000002301F0DBFBC4E90C0138BDAFF300805A
:100BE000A4703D0AD743424000000000006060400E
:100BF0000000103F0040754030B50125002285B04F
:100C0000046853210DF10F0300958DF80F20A047C4
:100C100030B19DF80F00A0F1E500B0FA80F0400976
:100C200005B030BD70B501254FF00B0C84B00095B8
:100C30003122532146680DF10E0304468DF80EC093
:100C4000B04758B14FF0080C66682D22532120465A
:100C500000950DF10F038DF80FC0B04704B070BDC3
:100C600070B5062684B00C4605683222532102ABCB
:100C70000096A84720B1029ABDF80C302260A380EC
:100C800004B070BD0000000038B50546B0F90000A2
:100C90000C4601F0D7FB12A3D3E9002301F052FB6D
:100CA00002460B46B5F90200C4E9002301F0CAFB75
:100CB0000BA3D3E9002301F045FB02460B46B5F92F
:100CC0000400C4E9022301F0BDFB05A3D3E900231E
:100CD00001F038FBC4E9040138BD00BFAFF3008068
:100CE0004A0C022B8716A93F2DE9F04383B002AFCF
:100CF0003C6A0D4604F1080C2CF0070CADEB0C0D12
:100D0000D0F80890661C8DF808200DF108082CB169
:100D1000194622460DF109000CF042FE0024D9F8D4
:100D20000000334642462946009405F025FC301A5F
:100D3000B0FA80F004374009BD46BDE8F08300BF3B
:100D4000F0B501251446876885B038681E460DF158
:100D50000F022B4600958DF80F400C4605F00CFC59
:100D6000A84202D0002005B0F0BD002538680A9BDB
:100D700032462146009505F007FC0A9B181AB0FA86
:100D800080F0400905B0F0BD0160704710B4044C1C
:100D9000044A8160C0E900425DF8044B704700BF1F
:100DA000410D0010E90C00100A4638B54FF481716E
:100DB000054610460CF07EF8041E0BDB042001F003
:100DC000E7FB034618B101201C602B6038BD2046AC
:100DD0000CF08AF8002038BD102208B500680CF02D
:100DE0008DF8A0F11000B0FA80F0400908BD00BFF6
:100DF000102208B500680CF083F8A0F11000B0FADA
:100E000080F0400908BD00BF10B5044600680CF032
:100E10006BF82046BDE8104001F0CCBB0A4638B55F
:100E20000121054610460CF045F8041E0BDB04209A
:100E300001F0AEFB034618B101201C602B6038BDE9
:100E400020460CF051F8002038BD00BF10B44FF41C
:100E500080740C4B53F8202003EB8003C00082F019
:100E6000400200F1804003F5805C02F0C00200F512
:100E7000203003F54053CCF8002041601C605DF841
:100E8000044B70470480034010B4084CC90041EA89
:100E9000820154F8202004EB8003514003F5805375
:100EA00001F00C015DF8044B1960704704800340A9
:100EB00030B44FF0000343EC440043EC4000052500
:100EC0004FF480740B4BC20053F8201003EB8000EA
:100ED00081F0400102F1804303F5203301F0C002AC
:100EE00000F5805100F540500A605D60046030BC40
:100EF000704700BF048003400FB400B583B0049C6A
:100F0000074803F057F83CB105A92046019102F0CB
:100F1000B7FE044803F04EF8012002F0C9FE00BFFE
:100F200094DE00107CDE001070B58646EFF310856D
:100F300072B6124CD4E8CF6F0120002EFAD1C4E86B
:100F4000460F002EF6D1BFF35F8F4FF0010CC8089B
:100F500001F007030CFA03F31EF800C01CEA0306B5
:100F600008D14CEA030C0EF800C0C4E88F6F85F37B
:100F7000108870BD1046FFF7BFFF00BF132500208B
:100F8000F8B5EFF3108772B61C4ED6E8CF5F012498
:100F9000002DFAD1C6E8454F002DF6D1BFF35F8F83
:100FA0009A421BD8012502E00132934222D3D40891
:100FB00010F804E002F0070C05FA0CFC1EEA0C0F16
:100FC000F2D14EEA0C0E00F804E010460023C6E809
:100FD0008F3F87F31088984207DBF8BD0023C6E8EF
:100FE0008F3F87F310884FF0FF300029F5D0069827
:100FF000FFF782FF4FF0FF30E8E700BF1325002026
:10100000044A1078431CDBB2182B28BF102313703E
:10101000704700BF9019002010B5054C82B0014602
:101020001F23182200940348FFF7AAFF02B010BD47
:10103000A4DE0010582700204FF0E022936843F010
:1010400000539360704700BF0021044B03F120025E
:10105000C3E88F1F01339342FAD17047082500205F
:101060004FF0E0234FF08032C3F80024C3F804248B
:10107000C3F80824C3F80C24C3F81024C3F81424BC
:10108000C3F81824C3F81C24C3F82024C3F824246C
:10109000C3F82824C3F82C24C3F8302462B6704760
:1010A000012300F01F029340400941B1800000F18C
:1010B000604000F56140C0F8803103607047024A2B
:1010C000203042F82030704700E100E00123064A5A
:1010D000410952F8212000F01F0003FA00F01040EF
:1010E000003818BF0120704700E100E001224309E9
:1010F000034900F01F008240403341F8232070472D
:1011000000E100E0054A10309268054B52F82000DB
:10111000C01A47288CBF00200120704700ED00E076
:101120009419002010B5EFF3108C72B6114BD3E870
:10113000CF4F0122002CFAD1C3E8442F002CF6D166
:10114000BFF35F8F0C4A103092680C4C52F820208D
:10115000A24201D091420BD1074A926842F8201076
:10116000BFF35F8F0022C3E88F2F8CF3108810BD70
:1011700000F08CFF1125002000ED00E011010010AF
:101180002DE9F04F0B4683B0EFF3108A72B6DFF80B
:10119000A891D9E8CF4F0121002CFAD1C9E8441F0A
:1011A000002CF6D1BFF35F8F5D4991F90080B8F153
:1011B000000FC0F2B3805B4C08EB480704EB8705D7
:1011C000AE7910300E7058494FEA4806896800968B
:1011D00051F82010BF000E1B472E34D821F0010E0D
:1011E0009EF80760964209D871E00CEB4C0604EBC0
:1011F000860696F807B093454ED9B6469EF906C0C6
:10120000BCF1000FF1DA4BF601560EF1040B043D70
:10121000A5EB0B05C5F34A056FEAC545009F6FEACC
:10122000D5454744BB468EF80680DFF8088104EBBD
:101230008707AEF8045044F82B80BE8087F806C0BC
:10124000FA71BB601AE0394EB14267D1AB60384BDE
:10125000EA71BA1C2244043B9B1AC3F34A036FEAA7
:10126000C3434FF421426FEAD343E2536B80FF2222
:101270004BF60153AA71AB8045F001012A4B9B68E4
:1012800043F82010BFF35F8F0023C9E88F3F8AF334
:10129000108803B0BDE8F08FF3463BF8046F760585
:1012A0000FD4761502360BEB460601966FF0070653
:1012B000F61B019F361B3E44C6F34A0646F46046C1
:1012C000A5E706F5FF1606F5FF561F36E9E7AB6002
:1012D0006FF00703EA714FF42142DB1B1B1B7344C1
:1012E000C3F34A06124BE25302372744043BDB1B8D
:1012F000A2F54142C3F34A0313433243AA800D4A85
:101300006B804AF6AA2173461B1B5B415943090DAA
:10131000A971CEF8002045F00101AFE700F0B6FE5C
:10132000212C00209419002000ED00E01101001094
:10133000DC1900200148804711250020F0B5EFF3AB
:101340000585EDB2EFF3108C72B62C49D1E8CF2FA2
:101350000123002AFAD1C1E8423F002AF6D1BFF3A7
:101360005F8F274E40F0010EB4684AF6AA2354F866
:101370002570244A0446A41A644163431B0D774533
:101380005BB223D092F906409C4224D092F91240DD
:101390009C422BD092F91E409C4229D092F92A40BF
:1013A0009C4227D092F936409C4225D092F9424087
:1013B0009C4208BF05240FD0134A002415781370EF
:1013C0008571C1E88F4F8CF31088F0BDB2680F4C67
:1013D00042F82540F0E7002404EB440402EB8402C9
:1013E000FF2494714BF601549480E5E70124F3E760
:1013F0000224F1E70324EFE70424EDE711250020A0
:1014000000ED00E094190020212C002011010010B3
:1014100010B5074C82B00146052300220094054810
:10142000FFF7AEFD0028A8BFC0F1330002B010BD29
:10143000C0DE0010262C0020014B0B4403607047D7
:101440000825002070B5104C104DAC420ED2FF267E
:10145000236863B1FFF7D4FD01462046FFF7ECFF98
:10146000A680BFF35F8F0834AC42F1D370BDFFF7A5
:10147000C7FD01462046FFF7DFFF2671BFF35F8FF0
:101480000834AC42E4D370BDE81F0020F01F0020F8
:1014900010B50446FFF7B4FD01462046FFF7CCFF28
:1014A000FF232371BFF35F8F10BD00BF10B504464B
:1014B0000120FFF7B1FD034B03442360BFF35F8FAF
:1014C00010BD00BF08250020024B0B440360BFF392
:1014D0005F8F70470825002010490B68EFF31080DC
:1014E00072B6D3E8CFCF0122BCF1000FF9D1C3E827
:1014F0004C2FBCF1000FF4D1BFF35F8F084A4FF0BF
:10150000000C137809680133DBB21370C1E88FCF88
:1015100080F3108840BF002000217047002C00207D
:10152000232C0020000000002DE9F04F2DED028B50
:1015300085B0EFF30583DBB2103B9A0818BF012298
:101540004FF0010103F0030B18BFAF4DAF4B08BFC5
:10155000AF4D0BEB820253F8226001FA0BF205F556
:1015600041539FEDA78B01925A602FE0B3881C0472
:1015700040F19380B379002B40F0DD80B6F908206C
:10158000002AC0F21E81736902EB420203EBC20320
:10159000D3E90247B7F1FF3F08BFB4F1FF3F0ED0D8
:1015A00005EB8B01AB6A0A69D21AE31A934205D3A1
:1015B00001232A6A03FA0BF3134200D10C61284677
:1015C00000F0C2FBA042B941C0F2FB80B6F908307E
:1015D000019A002B0093EA63C8DBD6F8148003EB72
:1015E0004309284608EBC907D7E9024A00F0ACFBDB
:1015F000A04271EB0A01B9DBBAF1000FC0F2C3805F
:10160000D7E90431834A934200F0ED807A88B6F935
:10161000080092B242EA0040984702460B4652EA5E
:10162000030100F0B080002B80F2D180B4EB020EF9
:101630006AEB030A38F93930C7E902EA002B95DB77
:10164000716903EB430201EBC202D2E90270BE45AD
:101650007AEB000C4FEA430288DBB4462CF8083FD3
:1016600006E003EB430001EBC0005A00D0E9027032
:10167000BE451A447AEB000001EBC20404DB31F9E9
:101680003230A446002BECDA28F83930009BACF855
:101690000030B3881C043FF56DAF3369EFF310825F
:1016A00072B6D3E8CF0F01210028FAD1C3E8401F5A
:1016B0000028F6D1BFF35F8F4FF6FF74B088002388
:1016C000316900B2B480C1E88F3F82F3108898423C
:1016D000FFF650AF0746A946746906F1080807EB04
:1016E000470E04EBCE03D3E90250B6F90830C446E6
:1016F000002B13DBB246009704E034F936309446F1
:10170000002B09DB03EB430604EBC602D2E90271AE
:10171000BD4270EB0101F0DA5646009FACF8007054
:1017200034F93E7024F83E30002FD8DAB3794D46B4
:10173000002B3FF423AF0023B371B6F9083006F154
:101740000808581C3DD01A46776903E08046591CAA
:101750003FF416AF03EB430107EBC100B0F802C042
:101760001C461CF4004F9E4637F93130EED09442AF
:1017700080ED028B05D0A8F80030328927F831209F
:1017800034817246E3E738F8393033813369EFF357
:10179000108272B6D3E8CF0F01210028FAD1C3E836
:1017A000401F0028F6D1BFF35F8F7388316928F896
:1017B0003930009B73800023C1E88F3F82F310888B
:1017C000D4E640BF05B0BDEC028BBDE8F08F2846E3
:1017D000CDE9022300F0B8FA029A039B10EB020E47
:1017E00043EB010A26E708460B6902919847002857
:1017F000C9D00299D1E9002311E700BFAFF30080FF
:10180000FFFFFFFFFFFFFFFF00800B40D42B0020F6
:1018100000000B40291500102DE9F84F364C2569C2
:101820002DB1BDE8F84F0A213448FFF705BEDFF8B7
:10183000E4800321404600F075FA0326C4F80C80CA
:10184000FFF7DEFB4FF0504C2D4B26700344236115
:10185000DCF800300F216370636961801D834FF0F5
:101860000405A3F878504FF00505A3F890504FF009
:101870000605A3F8A8504FF007050E214FF6FF729A
:1018800008274FF00A0EA3F8C0504FF001094FF09F
:101890000C0C4FF0020B4FF0090A0D204FF00B0516
:1018A000A3F868111749A280A3F808E1A160A3F882
:1018B00048B0A3F8F0A0A3F82051A3F838C1A3F8CA
:1018C0005001A3F83090A3F86060A3F8D8701A8094
:1018D0000D4B3046C8F820700C49DC60FFF722FC45
:1018E00049463046FFF7DCFB094B0A211F640348D9
:1018F000BDE8F84FFFF7A0BD001A0020002C002023
:1019000008250020FFFF1000D42B0020291500100F
:1019100000200B4000000B4000487047001A0020D8
:10192000F8B59DF82050044617461E4635B900F01C
:1019300013FA874266EB010100295CDB2169EFF3B2
:10194000108372B6D1E8CF0F01220028FAD1C1E886
:10195000402F0028F6D1BFF35F8FB4F902206569EC
:1019600002EB4201002A4FEAC10C206905EBC101DC
:1019700039DB35F80CE0A4F802E04FF0000EC0E8C7
:101980008FEF83F310884888069B0130C0F30E0068
:10199000012838BF01200B61079B48804B61C1E9DA
:1019A000027640EA02402369EFF3108172B6D3E871
:1019B000CF7F0126002FFAD1C3E8476F002FF6D161
:1019C000BFF35F8FA38825F80C30A2802369C3E89A
:1019D0008FEF81F310880122E368217803F501532A
:1019E0008A405A60F8BD0022C0E88F2F83F3108828
:1019F0004FF0FF30F8BD2846F8BD00BF0146F0B5F6
:101A00000069EFF3108772B6D0E8CF5F0124002D94
:101A1000FAD1C0E8454F002DF6D1BFF35F8FB1F981
:101A200002E04C690EEB4E0CBEF1000F4FEACC0504
:101A3000086904EBCC0C3CDB665B4E800026C0E8FA
:101A40008F6F87F31088BCF80200CCE902230130C5
:101A5000C0F30E00012838BF0120059BACF802003E
:101A6000CCF81030069B40EA0E40CCF814300B69DD
:101A7000EFF3108272B6D3E8CFCF0127BCF1000F8D
:101A8000F9D1C3E84C7FBCF1000FF4D1BFF35F8FF5
:101A90008B886353A1F804E00B69C3E88F6F82F36E
:101AA00010880122CB68097803F501538A405A60F7
:101AB000F0BD0023C0E88F3F87F310884FF0FF3060
:101AC000F0BD00BF03464089B0EB214F37DD5869B8
:101AD0000A1402EB420210B500EBC2001C69EFF3DE
:101AE000108C72B6D4E8CFEF0122BEF1000FF9D10D
:101AF000C4E84E2FBEF1000FF4D1BFF35F8F4288D0
:101B000089B292B28A4207D000221B69C3E88F2FA4
:101B10008CF31088002010BD42F400424280012165
:101B2000002218699971C0E88F2F8CF310881C78F7
:101B3000DA68084602F50153A140596010BD002043
:101B4000704700BF407870472DE9F04383B00646E8
:101B500000F002F94FF47A7304464FF0FF306FF053
:101B60000042E6FB0341A04272EB01033ABF044688
:101B700015460D46A61F45F1FF37B44275EB070326
:101B80003CBF0026374600F0E7F8301A67EB01014A
:101B9000012871F1000106DA2046294603B0BDE8AC
:101BA000F04300F0E3B800F0D7F8864267EB01019C
:101BB00000290ADB00211C4B324600931B483B46A0
:101BC0000191FFF71BFF0130E6D04FF0000E184ADD
:101BD000DFF864C01749536A9F4204D8906AB04244
:101BE000DAD29F42D8D1DCF80030EFF3108872B619
:101BF000D3E8CF9F0120B9F1000FF9D1C3E8490F15
:101C0000B9F1000FF4D1BFF35F8F0B78DCF800005F
:101C1000DBB2C0E88FEF88F310880878834200D1E8
:101C200020BF20BFD7E700BFD9140010001A002042
:101C300000000B40232C0020002C00202DE9F04751
:101C400005460C4682B0EFF30587FFB2002F38D16E
:101C5000304ED6E900238B4208BF824239D0DFF8EC
:101C6000C080D8F80CA098F80090504600F06CF8AE
:101C700009F104095AF829301B1A281A64EB0101EA
:101C8000984271F1000124DA00F066F8854264EBB5
:101C9000010100292DDB204B404600932A462346B4
:101CA0000197FFF7ABFE011E23DD1C4BC6E9005474
:101CB0005A6AA2422CD39B6AAB4227D31848FFF73B
:101CC00001FF164B5A6AA24208D2002002B0BDE8BA
:101CD000F08720BF114B5A6AA242F6D314BF0120ED
:101CE00000209B6AAB4228BF40F0010002B0BDE873
:101CF000F0870A4B586AA042E7D3001B18BF0120A7
:101D00009B6AAB4228BF40F00100EFE7A242D5D169
:101D100020BFD3E7F8190020D914001000000B40B1
:101D2000001A002010B4054B054C064AA04214BF0F
:101D30001846581C5DF8044BFFF7F6B85C270020E6
:101D400000800B40DCDE00100346416A0A46986AB8
:101D5000596A8A42FAD17047034B596A0A46986A0F
:101D6000596A9142FAD1704700000B40074A536A02
:101D70009942FCD8994207D1044B02E05A6A914239
:101D800002D19A6A9042F9D8704700BF00000B4018
:101D900000EB400C4FEA8C0C0CF1804C0CF5803CB5
:101DA000F0B51646DCF80420051FB2F5803F38BFB9
:101DB0004FF48032EDB238BFCCF80420012D2AD97F
:101DC0004FF40067254C0CF54052176054F8202062
:101DD000B2B9DCF80020012D82EA461202F0E002DE
:101DE0000CF5805632602AD94FF4006144F8203057
:101DF0004FF480330CF500521160CCF80430F0BD84
:101E00006769B7FBF2FE0EF1010E0EEB4E0EBEF14E
:101E1000030EFCD2DDE70129D2D103240CF5405298
:101E20001460DCF80820D207FBD5DCF800200B4C4E
:101E300082EA461202F0E0020CF58056326001227E
:101E4000DCF800504D4005F00305356002FA01F161
:101E5000DCF808200A42FBD0C6E700BF602700205C
:101E6000014B53F8200070476027002070B4039D99
:101E700004682D0345EA03451B4B002CB3FBF1F32B
:101E8000B2FBF3F61FDB194A194B904214BF4FF413
:101E900080424FF40042174C1A6003F580531A60D9
:101EA000A36832EA0303FBD1212200F54053043337
:101EB000016086601A600268002AFCDA0822C560A8
:101EC0001A6070BC7047036803F03F038B42DAD19D
:101ED0008368C3F30B03B342D5D1C36803F4EE2385
:101EE000AB42D0D1EDE700BF001BB700008005403A
:101EF000002002400000024030B44FF080441C4BF0
:101F00001C60E0B11B4CA3F54053DC611A4C40F05F
:101F1000010044401C62596298624FF080454FF0C6
:101F2000E061134B1548164C1D60846019604AB976
:101F300030BC4FF00042A3F580531A607047114B3C
:101F4000D861EAE74FF47A7303FB02F2B2F1807FC3
:101F50002ABF6FF07F4313461A464FF080410A4C68
:101F600008482360094B426030BC1960704700BFCD
:101F700000B00D40D3C007B02D3FF84F00A0014086
:101F8000F3FFFF0100800D40C42B002000A00D4096
:101F9000012300EB4000800000F1804000F5841038
:101FA00041600360704700BF002370B5DB8A0446C0
:101FB0000D461646002242E800F2520254BF10219C
:101FC000042144F252209847864633462A4620464A
:101FD000F446BDE870400A21604700BF0023DB8A59
:101FE000002242E800F2520201D4102118470421D5
:101FF000184700BF08B51346021E0DDB4BB941F070
:1020000020010023DB7C022B09D04FF48170FFF705
:10201000CBFF41F03001F4E78B06F6D5F1E74FF442
:102020009170FFF7C1FF00BF034AD2F82838002B98
:10203000FBD0BFF35F8F704700000E400021044BC0
:10204000044ABFF35F8F43F8041B9342F9D17047F2
:102050000C080E402C080E4010B44FF48D704FF455
:102060002A64064A064B07491460D0601960536819
:10207000002BFCDA5DF8044B704700BF0080044081
:1020800000A0044000B0FA00704700BF08B5014846
:10209000FEF732FF00DF001038B5054C054DAC42AD
:1020A00004D254F8043B9847AC42FAD338BD00BF81
:1020B000A8D90010E8D9001010B40748074C084B05
:1020C000084A094904601A608B6832EA0303FBD1AD
:1020D0005DF8044B704700BF002002407F3BEFEFEC
:1020E00000300240F6FFF30300000240044BDB6CBB
:1020F000B3F5004F03D14FF48022024BDA647047EE
:1021000000001150002011504FF0E022044BD2F893
:10211000881D0B43C2F8883D10EE3004704700BFA5
:10212000030330006FF06041044B054A1960936867
:10213000DB4333F06043FAD1704700BF0030024008
:102140000000024010B545F25320FFF747FFBDE8FD
:10215000104003460420184710B545F25320FFF7FE
:102160003DFFBDE81040034601201847FEF76CBF55
:1021700038B51349134C144D641AA408442C224654
:1021800028BF4422284692000BF00AFC432C14D8A6
:102190000E4AC4F144000ED005EB8403410803EB62
:1021A000C101C3E9002208338B42FAD1C30704D529
:1021B00020F00100044445F82420054B9D6038BD03
:1021C000000000101001001000000020110100109C
:1021D00000ED00E0002370B52B4C82B0C4F88430D1
:1021E000FFF73AFF0122294BDA63636C012BFCD124
:1021F0000321264A244B11639C6B012CFCD102263F
:10220000052521460523224A22480096FFF72EFE87
:1022100021462B46204A21480095FFF727FE002241
:10222000042031461E4BFFF7B3FD2146284600220D
:102230001C4BFFF7ADFD0022082011461A4BFFF79B
:10224000A7FD002209201146174BFFF7A1FD002230
:1022500006201146134BFFF79BFD0022114B072070
:102260001146FFF795FD0420FFF7FAFD00240F4B00
:10227000A3FB0035AD0CE0B229460134FFF788FE20
:10228000062CF8D102B070BD0000014000300140C2
:10229000002F685900000540008C864700800540EB
:1022A000001BB70080D1F008006CDC0283DE1B430A
:1022B00086B003B451FC0804CDE9020151FC0904C5
:1022C000CDE9040151EC0A04CDE9060103BCF04755
:1022D000BDE800504EEC00C4BDE800504EEC01C417
:1022E000BDE800504EEC02C400BD000000B5FFF791
:1022F000DFFF02E010FE30F4F8D441EC100443ECB0
:10230000112400EE010410EE010480EE200451ECD3
:102310001004704700B5FFF7CBFF02E010FE30F469
:10232000F8D441EC100443EC112400EE010410EE4B
:10233000210480EE200451EC3004704700B5FFF713
:10234000B7FF02E010FE30F4F8D410B541EC1004F1
:1023500043EC112451EC040453EC0524A0FB024C83
:102360005FF0000EE0FB03CEE1FB02CE4CEC20441C
:102370000024E1FB03E444EC30E480EE200451EC63
:10238000500410BD00B5FFF793FF02E010FE30F4DB
:10239000F8D441EC100443EC112451EC2104A0FBCF
:1023A00001126FEA820252FB100052FB12F252FB42
:1023B0001000A0EBD07C53EC04245CFB13F153EC35
:1023C0001524A1FB022001FB030053EC4424A2EBE3
:1023D000000050FB1CF24FEA111312EB017043EBAB
:1023E000E27140EA515020EA915020F0070053EC8E
:1023F0007524A0FB023C53EC752400FB03CC01FBCD
:1024000002CC53EC0424ACEB824C40EA5C70A0F1AB
:10241000010041EC400480EE200451EC7004704750
:1024200000B5FFF745FF02E010FE30F4F8D441ECB0
:10243000100480EE220410EEB204704700B5FFF7DE
:1024400037FF02E010FE30F4F8D440EC700400EEE8
:10245000010410EE210480EE200451EC300470479A
:1024600000B5FFF725FF02E010FE30F4F8D440EC91
:10247000600400EE010410EE210480EE200451EC13
:102480003004704700B5FFF713FF02E010FE30F490
:10249000F8D441EC800400EE010410EE010480EE5B
:1024A000400410EE1304704700B5FFF701FF02E08F
:1024B00010FE30F4F8D441EC800400EE010410EE7C
:1024C000010480EE400410EE3304704700B5FFF7BE
:1024D000EFFE02E010FE30F4F8D441EC100443ECBF
:1024E000112400EE010410EE3004C0F300707047B8
:1024F00000B5FFF7DDFE02E010FE30F4F8D443EC47
:10250000102441EC110400EE010410EE30F48CBFF5
:1025100001200020704700BF00B5FFF7C9FE02E0B0
:1025200010FE30F4F8D443EC102441EC110400EE1A
:10253000010410EE30F42CBF01200020704700BFD2
:1025400000B5FFF7B5FE02E010FE30F4F8D441EC20
:10255000100443EC112400EE010410EE30F42CBF03
:1025600001200020704700BF00B5FFF7A1FE02E088
:1025700010FE30F4F8D441EC100443EC112400EECA
:10258000010410EE30F48CBF01200020704700BF22
:1025900010B504460BF09CF928B10346034A2344C6
:1025A000934200D810BD0248FEF7A6FC00000820A8
:1025B0000CDF00100BF094B9704700BF2DE9F04F0D
:1025C00083B09946DDE90DAB0F9B884611469A070B
:1025D000074616D1DA453AD20C460D46ABEB0A0651
:1025E0000E4422464B46414620200134B847B442AF
:1025F000F7D12946BAF1000F08D1204603B0BDE853
:10260000F08F0C46BAF1000F10D00E4655460C9BC9
:102610002E449A440191721B4B46013D41461AF8E3
:10262000010D3446B847002DF5D101990F9B9B074A
:10263000E3D5651AAB45E0D922464B4641462020FA
:102640000135B8475D4504F10104F5D3D5E70C46E3
:10265000BAF1000FD9D1D0E72DE9F04F0F9FDDF887
:10266000248017F0020F0A9C9DF82CA00E9DDDE936
:102670000C9644D1F5BBB44241D207F0010B04F1F2
:10268000FF3C4FF0300EC44404E00134A6420CF885
:1026900001EF01D9202CF8D1BBF1000F00F08880A8
:1026A000A5422CD904F1FF3C4FF0300EC44404E0A5
:1026B0000134AC420CF801EF21D0202CF8D117F0F6
:1026C000100F0ED017F4806F54D1A64263D0A542EC
:1026D00061D0B9F1100F50D0B9F1020F56D0202CB3
:1026E00029D12024CDE90B57CDE90984BDE8F04F6D
:1026F000FFF764BF17F0010B34D1B442BFD317F01A
:10270000100F1ED017F4806FE3D1002CDDD1B9F18A
:10271000100F63D0B9F1020F77D0302488F8004051
:102720000124BAF1000F11D17E0748D52B2608F8F5
:1027300004600134D6E7264601344FF0300C08F827
:1027400006C0202CCDD0BAF1000FEDD02D2608F810
:1027500004600134CDE90B57CDE90984BDE8F04FA1
:10276000FFF72CBFBAF1000F30D0B44205F1FF35AE
:1027700085D395E7B9F1100FB3D1BE063BD5202C18
:10278000AFD0582608F804600134A8E7202CA8D060
:102790002646013407E0661EB9D0B9F1100F36D0D5
:1027A000B9F1020FC9D14FF0620C08F806C096E7E4
:1027B00017F0100FC5D017F4806F86D089E73E0759
:1027C00090D5202608F8046001348BE717F00C0F31
:1027D00000D0013DB442FFF452AF61E7BC0612D411
:1027E000782488F80040302488F801400224BAF1A7
:1027F000000F99D0AAE7202C3FF473AF782608F891
:10280000046001346BE75824EBE76224E9E717F032
:10281000200FA4F1020C04D04FF0580E08F80CE081
:102820008BE74FF0780E08F80CE086E700B97047A8
:1028300001F07EBB10B1D1E900311847704700BFED
:102840002DE9F04F97B09DED207BDDE9225B074637
:10285000884651EC170B249C99460C920B46024675
:102860008DED047B0794FFF735FE002840F0F481DE
:10287000DDE904014FF0FF326FF48013FFF73CFEF7
:10288000002840F01B81DDE904014FF0FF32AC4B22
:10289000FFF76EFE002840F0EE80DDE90401A4A3FE
:1028A000D3E90023FFF764FE002840F0D380DDE980
:1028B0000401A1A3D3E90023FFF71EFE002840F086
:1028C000C980DDE9040100220023FFF715FE00287E
:1028D00040F0E88023460D9013F4806F08BF062572
:1028E00030212B460EAAA5F1200605E0013BB3429C
:1028F00002F8011B00F09381092BF7D81E46ED1A50
:10290000DDE90401FFF7C2FD8E4B044603EBC6036D
:1029100093ED007B8DED087BFFF794FD02460B469F
:10292000DDE90401FFF7FAFCDDE90823FFF70AFD02
:1029300002460B46CDE90A23FFF7BAFD8246FFF7B0
:1029400093FD02460B46DDE90A01FFF7E7FC02466C
:102950000B46CDE90A2300227B4BFFF709FE002836
:1029600000F0FE800AF1010A5046FFF77DFD0246A5
:102970000B46DDE90801FFF7D3FD10B14FF0000A67
:102980000134002E00F0FD80681E0EABDFF8CCC1D4
:1029900018440FE0ACFB0A21C90801EB8102AAEB45
:1029A00042023032BAF1090F00F8012F40F21C81C7
:1029B0008A461D46202D05F1010306F1FF36E9D1B7
:1029C0002025691E0EAB6148194410E080FB0462AB
:1029D000C3EBA20303EB8302A4EB420404F1300235
:1029E00001351C4601F8012F002B00F0EB80202D53
:1029F0004FEAE473EAD1079B03F00303012B18D1DC
:102A0000BBF1000F15D00D9B002B00F00A810BF1DC
:102A1000FF3BBBF1200F0CD96B1E0EA930220B44DB
:102A200005E001355D4503F8012F80F0D180202DB0
:102A3000F7D1079B0EACCDE902B341464B46384671
:102A40000C9A01950094FFF7B9FD8246504617B0E5
:102A5000BDE8F08F079B9DED047BCDE923B3414694
:102A60004B4638460C9A8DED207B229517B0BDE879
:102A7000F04F00F045B9610723464CBF0423032300
:102A80004146219338464B46079A48BF304CCDE922
:102A900022B258BF2F4C0C9A209417B0BDE8F04FCB
:102AA000FFF78CBDDDE9042300200021FFF736FC91
:102AB0000123CDE904010D9323460DE723469C072E
:102AC00040F0AA80BBF1040F40F2A6800C9B1D468B
:102AD0001C1F04EB0B0A2A464B46414620200135B9
:102AE000B847AA45F7D155461B4C261F14F8010DCF
:102AF0002A464B464146B847B44205F10105F5D197
:102B0000079B0AF1040A9807A0D50C9CAAEB0403C2
:102B10009B459BD952464B46414620200AF1010A6B
:102B2000B847AAEB04035B45F4D38FE7AFF300800B
:102B30000000000065CDCD410000000065CDCDC195
:102B4000FFFFEF7FC0E300100000E03F67666666AE
:102B500058DF001060DF00106CDF0010CDCCCCCC53
:102B60000022DDE90A01634BFFF7C6FC00287FF471
:102B700008AFBAF1000F6AD10AF1010A002E7FF402
:102B800003AF2046FFF75EFC02460B46DDE9040179
:102B9000FFF7C4FB02460B46CDE904230022554B48
:102BA000FFF7AAFC00287FF40CAFDDE90401002246
:102BB000504BFFF7DDFC00287FF403AF013424F015
:102BC0000104FEE6079B03F00303012B00F0828063
:102BD000202D3FF42EAF0D9B7BB32D220DEB050373
:102BE00083F83820013524E7202B3FF4E9AE0EAA04
:102BF00015441E44302204E0202B05F8012F3FF439
:102C0000DFAE9E4203F10103F6D12E220DEB060347
:102C100083F83820751CD4E6DDF830A063E7202562
:102C20006EE6079B13F00C0F50D00BF1FF3BAB454A
:102C30003FF6F2AE202D3FF4FCAE079B5A0701D5BC
:102C40002B22CBE71B077FF5F4AE2022C6E71AF054
:102C5000010F3FF496AE8FE7A60734D1BBF1030F07
:102C600031D90C9B1D46DC1E04EB0B0A2A464B4651
:102C7000414620200135B8475545F7D155461E4CF1
:102C8000E61E14F8010D2A464B464146B847A642B7
:102C900005F10105F5D1079B0AF1030A9D077FF5B0
:102CA000D5AE0C9CAAEB04039B457FF6CFAE5246F3
:102CB0004B46414620200AF1010AB847AAEB04031B
:102CC0009B45F4D8C2E6DDF830A0D7E7AB453FF628
:102CD000A3AEAEE6BBF1000F3FF47AAF0D9B002B25
:102CE0009FD00BF1FF3B5D45FFF496AE202D7FF4A6
:102CF00074AF9EE60000E03F67DF001000000000B8
:102D00002DE9F04F9FB02A9EDDE9284507469346FE
:102D10000891099322462B46204629460E96DDE966
:102D20002BA6FFF7D7FB002840F0BE80204629469F
:102D30004FF0FF32784BFFF71BFC002840F0B480C7
:102D4000204629464FF0FF326FF48013FFF7D4FB83
:102D5000002840F0A9802046294600220023FFF7E2
:102D6000CBFB002840F0D581CDE90A45DDE90A23F7
:102D70009046994606F4006216F480630F9213930E
:102D800040F0A18058EA090340F0CA80002A40F0D0
:102D9000E38106230E9316F00202109240F0D481D4
:102DA0005346042B38BF04230C920422043B129296
:102DB0000F932046294600220023FFF79DFB0028A1
:102DC00040F0F3819DED0A7B0F9B5A4603930E9BC7
:102DD0008DED007B029326F4006304933846099B33
:102DE0000899FFF72DFD024616F0200F099B089960
:102DF0000CBF6520452002F10108B8470C9A129BD0
:102E000016AC5D1E82EAE273A3EBE273D10F0026DB
:102E100022469946DFF804C101E0202E10D0CE46AC
:102E2000ACFB0930C00800EB8003A9EB430330334F
:102E3000BEF1090F814606F1010602F8013BECD80C
:102E40000523002006930A2305950094099D089CFC
:102E50004246CDE90330CDE901612B462146384693
:102E6000FFF7FAFB109A8046D2B1A0EB0B06B245F1
:102E700016D90BEB06022B46214620200136B84717
:102E8000B245F6D80BF1FF335344CBF10102A3EB6B
:102E900008034244924538BF002308F101089844D2
:102EA00040461FB0BDE8F08F5A463846CDE9284568
:102EB000CDE92BA60E9C099B08992A941FB0BDE86A
:102EC000F04FFFF7BDBC58EA09032BD1002A3FF4AD
:102ED00062AF00230C930E9B0C9A934200F3B981CE
:102EE0004FF000082046294600220023FFF704FB8C
:102EF000002840F013819DED0A7B26F4006646F41D
:102F000080668DED287B5A463846CDE92A8A099B92
:102F100008992C96D2E700BFFFFFEF7FCDCCCCCC39
:102F200006230E93C9F30A50A0F2FF30FFF78AFA86
:102F3000C1A3D3E90023FFF705FAC1A3D3E9002316
:102F4000FFF7D8F9C9F31309CDE90C0149F07F5116
:102F500040460022B24B41F44011FFF7DFF9A4A331
:102F6000D3E90023FFF7EEF902460B46DDE90C0139
:102F7000FFF7C0F9FFF78AFA0C90FFF763FA9EA3F8
:102F8000D3E9002380468946FFF7DCF90022A54BF0
:102F9000FFF7B0F9FFF77AFA034649464046129325
:102FA00097A3D3E90023FFF7CDF98046129889460D
:102FB000FFF748FA94A3D3E90023FFF7C3F90246C9
:102FC0000B4640464946FFF7A9F902460B468046A4
:102FD0008946FFF7B7F942464B46CDE91001404616
:102FE0004946FFF787F90022CDE91401DDE9100118
:102FF0008D4BFFF7CBF900228C4BFFF77BF9024694
:103000000B46DDE91001FFF7C1F90022884BFFF7FD
:1030100071F902460B46DDE91001FFF7B7F94246A8
:103020004B468046894600204FF08041FFF776F9F5
:1030300002460B4640464946FFF75CF902460B46FE
:10304000DDE91401FFF7A2F900227A4BFFF752F9EC
:10305000129B002203F2FF3C4FEA0C53FFF772F978
:1030600080468946DDE90A0142464B46FFF744FAAD
:1030700050B10C9B4046013B49460C9300226B4BE0
:10308000FFF784F9804689460C9A43466332C62A84
:1030900006F00202109249460F9A2CD8002A5ED000
:1030A000042212920B433FF416AFDDE90A0158A344
:1030B000D3E90023FFF748FA48B1DDE90A0156A336
:1030C000D3E90023FFF718FA00287FF404AF0E9B22
:1030D000002B50D0139A002A7DD0013B0E93129BF7
:1030E0009A4505D9109B002B00F0AE800223109367
:1030F00000230F9344E022BBBAF1050F4FD906F02D
:103100000203002B49D105231293AAF105030F9363
:103110003AE005F100430A940B9327E626F4006693
:1031200046F4806638462C96DDE90A67344607F196
:1031300000455A46CDE92A8ACDE92845099B0899D8
:10314000BCE605221292ADE700230222CDE90F3240
:1031500004220C9312922CE64FF00508C2E6BAF155
:10316000040F1FD9109B002B78D104231293AAF1CE
:1031700004030F9304E0129B9A4531D80E9B0F93E2
:103180000C9B002B3FF415AEDDE90A0142464B468D
:10319000FFF7FCF8CDE90A010BE6022310930523A3
:1031A0001293F1E704231293EAE7DDE90A45A0460A
:1031B0000F9B05F1004903930E9B5A46029326F498
:1031C000006304933846CDE90089099B0899FFF70D
:1031D00037FB024608E6129B9A4544D80F92CFE788
:1031E000109B8BB30E9B0F9302231093C8E700BF75
:1031F00061436F63A787D23F71A379094F930A4058
:103200001655B5BBB16B0240EF39FAFE422EE63FD0
:103210002D431CEBE2361A3F0000000080842E4153
:103220000000F83F0000E03F00002C400000244078
:10323000000018400000F03FFB799F501344D33F3B
:10324000B3C8608B288AC63F129BAAEB03030F9377
:1032500096E7A3EB020808F1FF3843E60423129334
:10326000022310938CE7109B002BEDD002230F92CA
:10327000109385E72DE9F04F9BB0249C954D0A945F
:10328000954CB1F1000A18BF834625601878934C1D
:10329000914608BFA3460993002800F093824FF09F
:1032A00000080AE042464B46514608F10108D8475B
:1032B000099B1878002800F0CE80099B252803F18F
:1032C00001030993EED11C460023224612F8010B9C
:1032D000A0F1200110290AD8DFE801F04009093CDB
:1032E0000909090909090938093409093000A0F157
:1032F00030010929099440F28A802A2800F0F080E0
:1033000000252E2800F096800026A0F168011229E1
:103310002DD8DFE811F049012C0043012C003801C1
:103320002C002C002C002C002C002C002C00270042
:103330002C002C002C002C002C002700144643F0FD
:103340000103C2E7144643F00203BEE7144643F00C
:103350000403BAE7144643F01003B6E7144643F0FB
:103360000803B2E70999487843F48073013267286B
:1033700009927ED8242840F2C180A0F12502422A79
:1033800000F2BC80DFE812F05001BA00BA00BA00C7
:10339000BA00BA00BA00BA00BA00BA00BA00BA005D
:1033A000BA00BA00BA00BA00BA00BA00BA00BA004D
:1033B000BA00BA00BA00BA00BA00BA00BA00BA003D
:1033C000BA00BA00BA00BA00190137011901BA00EF
:1033D000BA00BA00BA00BA00BA00BA00BA00BA001D
:1033E000BA00BA00BA00BA00BA00BA00BA00BC010A
:1033F000BA00BA00BA00BA00BA00BA00BA00BA00FD
:10340000BA00BC015801BC0119013701190100259E
:1034100000E0013205EB850500EB45051078303DF5
:10342000A0F130010929F4D92E28099202F10102F4
:103430007FF46AAF099943F4806348781146A0F19C
:103440003006092E40F221812A2800F02F810992AE
:103450000026013259E74446C14501D809F1FF3839
:103460004B46424651460020D84720461BB0BDE897
:10347000F08FA0F16902D2B20F2A3FD8012149F2A0
:1034800041079140394040F0F3800A2A3DD0072A95
:1034900034D10A9D55F8042B002A00F0138143F023
:1034A000210012AB1F460B9303E0202900F014818A
:1034B0001A4602F00F042346092C94BF30333733E9
:1034C0000F2A07F8013B01F101014FEA1213ECD872
:1034D00002E100BF75320010C02B0020B92500109A
:1034E0000A99099851F8045B4078002DCDE909212B
:1034F000BCBF43F002036D42013202E742464B4635
:10350000514608F10108D847D2E60A99002E51F831
:10351000047B18BF3246387808BF4FF0FF320028CE
:1035200000F07B83BC18A4463A4604E012F8014F31
:10353000002C00F03F819445F8D16446E41B5A0505
:1035400040F12281B44228BF344613F0020300F058
:1035500088820223CDE90A5142461D46464408E0CE
:103560004B465146D84717F8010F08F1010810B132
:1035700042464645F4D12B460B990A9D002B40F05C
:1035800041810A9194E6099948786C287FF4ECAE61
:103590000A46887843F440730332E8E6099943F415
:1035A000007348780132E2E609994878682800F00B
:1035B000038143F080030132D9E6672800F0D98007
:1035C000472800F0DC80452800F0DB80CDE903537C
:1035D0000A9B0296073323F007031C464246F4E891
:1035E00002674B4651465846CDE900670A94FFF7FB
:1035F00087FB80465CE6462808BF43F02003CDE900
:1036000003530A9B0296073323F007031C464246E6
:10361000F4E802674B4651465846CDE900670A94E4
:10362000FFF70EF9804643E642464B4651462520B9
:1036300008F10108D8473BE60A9A990702F1040409
:1036400008F1010640F1C68010784B4642465146CB
:10365000D847012D88BFA84440F2BD8132464B4671
:10366000514620200136D8474645F7D10A941FE637
:103670006F2800F0818040F24882782800F0908125
:103680000A2723F01003BC4641E0002606EB86061D
:1036900000EB4600A0F1300611F8010FA0F1300256
:1036A000092AF3D90A46099101322EE6DDE90921FA
:1036B00051F8046B9078023209920A91013226EA9D
:1036C000E67622E623F0100013F4806240F0210039
:1036D0003FF4E7AE12AB0B930B9B069000930823CD
:1036E0001020059300234246CDE9023001914B465C
:1036F000514658460496FEF7AFFF0A958046D7E537
:10370000582862D0622840F08F800227BC4613F40C
:10371000806000F0DD8023F00D0313F4007240F0B0
:1037200081810A990F1D13F4807140F037825C0685
:103730000A9A40F13B811278002A40F04E8123F032
:103740001003002800F04981114612AA0B92CDE91E
:103750000553CDE903C601910B9B4246009300231C
:103760005146029358464B46FEF776FF0A9780462D
:103770009EE543F4006329E70827BC46C7E743F406
:10378000006343F0200321E713F0020300F08E8171
:1037900002230A951E460D4642464B465146D847DF
:1037A00017F8010F08F101080028F5D12946334622
:1037B0000A9DE3E6D41BC2E60A46887843F0C003BC
:1037C0000332D4E50446804646E6102743F0200342
:1037D000BC469CE7012D40F2F880464608F1FF37D1
:1037E0002F4432464B46514620200136D847BE4230
:1037F000F7D10A9B3246187851464B46D847A84421
:103800000A9455E54646A5427FF6BBAEA844A8EB10
:1038100004080C4632464B46514620200136D84714
:103820004645F7D12146ACE613F4806200F0BB8038
:103830004FF4806223F0110C1CF400770A9B4AD1EC
:103840001CF4807003F1040440F034811CF0400F3C
:1038500040F0A3801CF0800F00F0D381B3F900107A
:1038600081EAE177A7EBE177BFB2CB0F002900F047
:1038700056813A4612A90F46DFF8D8E30B910A9316
:103880000C9501E020280FD01546AEFB0213DB0893
:1038900003EB8301A2EB41013031092D1A4600F1FF
:1038A000010007F8011BEDD80A9B0C9DCDE9055CD2
:1038B000CDE9010304960B9B424600930A2351462F
:1038C000039358464B46FEF7C7FE0A948046EFE442
:1038D00023F00C0321E7073323F0070319460846BA
:1038E0005B6850F8081BDF0F0A9051EA030062D1B1
:1038F000002A40F09F811346114612AACDE90C75AB
:1039000000201546CDE90E68DFF848E30B9201E090
:1039100020282DD05A1842F10002AEFB027828F080
:10392000030707EB9807D21B1E469B1A61F100079D
:103930000C464FF0CC3101FB03F10EFB0711A3FB4A
:103940000E731944052307F00108A8FB03389B18E0
:103950000A2E03F130034FEA570774F1000405F80B
:10396000013B00F1010047EAC1734FEA5101CFD298
:10397000DDE90C75DDE90E680B9B424600930A23D6
:10398000CDE9055CCDE90107049603934B4651460A
:103990005846FEF761FE80468AE419780F4664E7D0
:1039A0001027BC46B3E623F0100C45E71C064CBFBD
:1039B00012881268C0E60A46191E01DB13469CE70E
:1039C0005242134661EB410197E71346514618787E
:1039D00042464B46D847B04648E613F0200F14BF86
:1039E0004120612012ACA6460B940A93A0F10A0470
:1039F0000C9502E0202912D02A46B2FBFCF50CFB04
:103A00001520C3B2092803F130008ABF1B19C3B2C5
:103A1000DBB262450EF8013B01F10101EAD20A9BDB
:103A20000C9D94E60A9A073222F00702516852F878
:103A3000084B8E460A9254EA010276D123F0100315
:103A4000002872D00022114612AA0B92CDE905532C
:103A50000B9B424600930023CDE903C601910293DC
:103A600094E7A54298BF01347FF674AD4FF48063AC
:103A7000CDE90A7505EB08021F460D46141B4246A8
:103A80004B465146202008F10108D847A045F6D101
:103A90003B460A9F294638780B9D6C1C00283FF452
:103AA00070AD002B3FF475AE002353E5A542DFD87F
:103AB00001346EE61968CB0F002900F0A88081EA76
:103AC000E172A2EBE17212A90846DFF888E10B91DE
:103AD0000A930C9501E0202F0FD01546AEFB021380
:103AE000DB0803EB8301A2EB41013031092D1A46BB
:103AF00007F1010700F8011BEDD80A9B0C9DCDE9E9
:103B0000055CCDE901730496D5E6692823F0100C15
:103B100040F08C8013F480623FF48EAE88E6002A79
:103B20003FF4A8AE12AA0B92C0E613F0200F14BF08
:103B300041226122002012A90A3ACDE90E68CDE99E
:103B40000C35CDF844B006468846754693460B9131
:103B5000CDF840C003E0202E17D004460D4629467C
:103B60003A460023204609F0FBFED2B2092A02F1B0
:103B7000300388BF02EB0B03BC42DBB275F10005DA
:103B800008F8013B06F10106E5D23146DDE90C35C6
:103B9000DDE910CBDDF83C800E9E57E70A990968F5
:103BA00051B923F0100338B112A90B91CDE9055397
:103BB000CDE903C60192CFE513F0200F14BF4120D9
:103BC000612012ACA6460B940A93A0F10A040C954E
:103BD00002E0202A12D02946B1FBFCF50CFB15109F
:103BE000C3B2092803F130008ABF1B19C3B2DBB28C
:103BF00061450EF8013B02F10102EAD20A9B0C9DDD
:103C0000D4E7196881EAE177A7EBE1772DE6002A8E
:103C10003FF459AF12AA0B9271E713F480640DD0F0
:103C200013F0020412D004464646ECE50A27634628
:103C3000BC466CE512AB00200B939DE613F002032B
:103C40007FF4E0AD002D7FF413AF9AE4002D7FF4F4
:103C50000DAF96E4CDCCCCCC70B594461E4605464F
:103C60000C4684B04FF0FF32634602A90096034829
:103C7000CDE90254FFF7FEFA04B070BD35280010FC
:103C800010B5094B84B01C684CB1034600914FF04D
:103C9000FF3203A90548A047012004B010BD00F081
:103CA00089F9204604B010BDC02B00202D2800103B
:103CB00000BEFDE7704700BF074A0346106838B1F1
:103CC000064903448B428CBF4FF0FF3013607047AE
:103CD000034908461160F3E7BC27002000000820D4
:103CE000282C002008B5FFF7E3FF00BF38B5064CCD
:103CF000064DFEF7D1F9AC4204D254F8043B984784
:103D0000AC42FAD338BD00BFE8D90010ECD900109E
:103D100003680846114618472DE9F0411546427DD3
:103D200007468846002A46D0002D1DDD0B780A2B59
:103D300023D0012D4FF0000C18D04646012416F870
:103D4000012F21460A2A04F1010422D0A542F6D10E
:103D500065450BDC08EB050313F8013CA3F10D03EB
:103D6000B3FA83F35B093B75BDE8F0813B68A5EBD3
:103D70000C0108EB0C009847ECE7037D002BD8D131
:103D8000036802210F489847012DE3D04FF0010C42
:103D9000D3E716F8013C0D2BD8D08C4508EB0C006E
:103DA000A1EB0C0101DA3B689847022105483B680A
:103DB0009847A446CAE7294640463B68BDE8F0411B
:103DC000184700BF10E40010F8B50B685A1C802A91
:103DD0000B440A60187100D0F8BD0D4B0D461C68ED
:103DE0009CB10C4E0F1D01E0246974B12368002BB7
:103DF000FAD033680BB1A342F6D1204639462A687F
:103E0000FFF78AFF2469002CF0D100232B60F8BD56
:103E1000B0270020B82700202DE9F04782B00D46DA
:103E200091461C460646FDF797FF4FF0FF3C6FF0AA
:103E300000472E4A821841F10003944577EB0301B5
:103E40003CBF62463B462A4809F07EFD6B1C80461B
:103E500040D00CB3274F284B1C68B4B1B9F1000F08
:103E60001CD1DFF89C9001E0246974B12368002B19
:103E7000FAD0D9F800300BB19C42F5D120462A4641
:103E80003146B8472469002CF0D1B8F1000F26D193
:103E9000284602B0BDE8F087184FDCE74FF00A0A69
:103EA000DFF85C9002E02469002CEED02368002B40
:103EB000F9D0D9F800300BB1A342F4D12A463146EB
:103EC0002046B847012220460DF107018DF807A0D2
:103ED000B847E8E7304609F0B5F80546B9E70448C1
:103EE00009F056FD284602B0BDE8F08740420F00B9
:103EF000E81F0020193D0010B0270020113D0010E0
:103F0000B8270020084A136823B90AE003F1100219
:103F10001B6933B18342F9D129B91869106019615D
:103F2000704701B110607047B027002000F06CBAF4
:103F3000F0B583B006468DF80700FDF70DFF4FF092
:103F4000FF356FF00044174A821841F10003954293
:103F500074EB03013CBF23462A46134809F0F4FCE6
:103F6000124B07461C689CB1114D01E024697CB1DD
:103F70002368002BFAD02B680BB19C42F6D1204667
:103F800001220DF10701FFF7C7FE2469002CEFD1D4
:103F900017B9304603B0F0BD034809F0F9FC3046CC
:103FA00003B0F0BD40420F00E81F0020B027002002
:103FB000B827002038B5044609F044F80123054627
:103FC0001A4620462946FFF727FF084B1C682CB1EC
:103FD00063682BB198472469002CF9D1284638BD75
:103FE0002469002CF4D1284638BD00BFB02700203A
:103FF0002DE9F041A2B004460D46FDF7ADFE4FF0AD
:10400000FF376FF00046264ADFF8A480821841F19E
:104010000003974276EB03013CBF3A463346214802
:1040200009F092FC00272B462246064601A91E48AD
:104030000197FFF711FE019B0546D8F80040C3B178
:10404000002C2BD0194F01E0246974B12368002B98
:10405000FAD03B680BB1A342F6D12046019A02A9DF
:10406000FFF75AFE2469002CF0D10023D8F8004055
:1040700001932CB1636843B198472469002CF9D1AE
:104080002EB9284622B0BDE8F0812469F1E7054841
:1040900009F07EFC284622B0BDE8F0810194EFE7EC
:1040A00040420F00E81F0020C93D0010B827002043
:1040B000B02700200FB400B583B004A951F8040B59
:1040C0000191FFF795FF03B05DF804EB04B0704772
:1040D000024A034B10601960704700BF5027002050
:1040E00054270020184B70B51A68002A28D0EFF327
:1040F000108172B6D2E8CF4F0120002CFAD1C2E86D
:10410000440F002CF6D1BFF35F8F00220F4C1868CC
:1041100059602270C0E88F2F81F310880024002599
:104120000B4E3078FCF7D2FF20B900240025204642
:10413000294670BD3078FCF7D9FF2046294670BD6E
:104140004FF47A740025EBE7CC2B0020252C0020BF
:10415000242C0020014B1878FCF7C8BF242C002029
:1041600038B5044600200D4601F05EFBA8B30020E0
:1041700001F070FB88B3FDF7EFFD4FF0FF3E6FF0ED
:10418000004C174A821841F1000396457CEB03016D
:104190003CBF72466346134809F0D6FBE8B10020E5
:1041A00001F042FB58B900214FF0FF3000F076FDDE
:1041B0006FF002040B4809F0EBFB204638BD0020ED
:1041C00001F048FB0028EED021462A46002001F0ED
:1041D0004BFB04460028EDD1EAE76FF00204ECE760
:1041E00040420F00042C002008B5FDF7B5FD4FF04C
:1041F000FF3E6FF0004C0F4A821841F100039645D4
:104200007CEB03013CBF724663460B4809F09CFB04
:1042100070B14FF0FF30002100F040FD002001F0B0
:104220006BFB0028F5D1BDE80840034809F0B0BB9E
:1042300008BD00BF40420F00042C00202DE9F843C8
:1042400080460F46FDF788FD4FF0FF356FF00044C4
:10425000334A821841F10003954274EB03013CBFDD
:104260002A4623462F4809F06FFB08B9BDE8F883BA
:10427000002001F0D9FA002847D0002F40DD0025AA
:10428000DFF8A890284E13E02246002001F07AFBC8
:10429000002104464FF0FF3000F000FD002001F047
:1042A0002BFBFDF759FDC9E900012544AF4227DD8D
:1042B000002001F087FB7C1B8442A8BF044608EB6A
:1042C0000501002CE0D121464FF0FF3000F0E6FC64
:1042D000204601F011FB204601F0A6FA80B12046ED
:1042E00001F070FB0028E1D1FDF736FDD9F8003070
:1042F000D9F804209B1942F1000283428A41D5D2A9
:104300000848BDE8F84309F043BB00200021074BF3
:10431000C3E90001BDE8F843024809F039BB00BF1A
:1043200040420F00042C002020A107007021002033
:1043300030B5002185B02E4809F02EFBF0B92D4B89
:104340001A68CAB1EFF3108172B6D2E8CF5F0124C8
:10435000002DFAD1C2E8454F002DF6D1BFF35F8F93
:10436000254C1D6822785960D3B201222270C5E81D
:104370008F0F81F31088CBB105B030BD00214FF015
:10438000FF3000F08BFC002001F064FA044618486E
:1043900009F0FEFA002CEFD0184B1B68002BEBD075
:1043A000174A106805B0BDE830401847FDF7B4FA69
:1043B0000446FDF7D1FC4FF0FF3C6FF0004510F5CF
:1043C0007A7241F10003944575EB030138BF2B4627
:1043D0004FF000014FF0010520460A4C38BF6246FD
:1043E000CDE901150094FDF79BFA05B030BD00BF83
:1043F000042C0020CC2B0020252C0020502700204E
:1044000054270020E54000104FF0504330B585B0F0
:104410001C68FDF781FAFDF795FBA04202D0002051
:1044200005B030BD00212A4B08461B7801F086FC00
:1044300028480368002B47D00120FCF7E9FF03461A
:10444000254C2649C0B22370FCF76CFE2078012170
:10445000FCF726FE0E20FCF755FE40BB204B012545
:10446000C3E90000FDF758FA0446FDF775FC4FF06C
:10447000FF3E6FF0004C10F57A7241F10003964553
:104480007CEB03014FF000012046164C3CBF724606
:104490006346CDE901150094FDF742FA0028BEDB22
:1044A00001211148FFF72EFD012005B030BD01208C
:1044B000FCF7B2FD01460A48FDF706F800220E207F
:1044C0000A49FCF75DFEEBE7FCF7E2FFB4E700BF4B
:1044D00024E60010042C0020242C0020314300107E
:1044E000CC2B0020E5400010181A00205541001088
:1044F000004870478CE400100048704738E4001012
:1045000038B5184B04461A780AB344B940F2094248
:104510004FF44173144D6A8013482B8038BD052C2D
:104520001DD8124B104D53F8241028460023013992
:1045300003E0132B20F8022F0ED011F8012F0133C6
:10454000DBB2002AF5D15B0043F44073E4E71121AC
:10455000184600F025F8D8E74FF44A73DCE700204E
:1045600038BD00BF0C2C00208827002020E400105C
:1045700000B545F247308BB0FDF730FD0122034610
:10458000092101A89847DDE90332044912BA1BBA90
:10459000C1E900230BB05DF804FB00BFF82B00203D
:1045A000012901F1FF3300F0B3805D490A784FEA39
:1045B000121C9F2A8CBF0CF1370C0CF1300C012B14
:1045C00080F800C000F0A78002F00F02092A8CBF1B
:1045D00037323032022B427000F09D804A784FEA29
:1045E000121C9F2A8CBF0CF1370C0CF1300C032BE2
:1045F00080F802C000F08F8002F00F02092A8CBF01
:1046000037323032042BC27000F085808A784FEA4E
:10461000121C9F2A8CBF0CF1370C0CF1300C052BAF
:1046200080F804C077D002F00F02092A8CBF37321D
:104630003032062B42716ED0CA784FEA121C9F2A84
:104640008CBF0CF1370C0CF1300C072B80F806C036
:1046500061D002F00F02092A8CBF37323032082BAA
:10466000C27158D00A794FEA121C9F2A8CBF0CF1F4
:10467000370C0CF1300C092B80F808C04BD002F03D
:104680000F02092A8CBF373230320A2B427242D0D5
:104690004A794FEA121C9F2A8CBF0CF1370C0CF19F
:1046A000300C0B2B80F80AC035D002F00F02092A1B
:1046B0008CBF373230320C2BC2722CD08A794FEA41
:1046C000121C9F2A8CBF0CF1370C0CF1300C0D2BF7
:1046D00080F80CC01FD002F00F02092A8CBF3732BD
:1046E00030320E2B427316D0CA7911099F2A8CBF23
:1046F000373130310F2B81730DD002F00F02092AB0
:1047000094BF30323732102BC27318BF103002D032
:10471000002303707047184400230370704700BFE4
:10472000F82B0020704700BF0022014B1A70704721
:10473000222C00204B79FF2B0BD1887948B9CB79FB
:10474000012B07D1082A05D9034B8A7809201A7052
:1047500070470020704700BF222C002001207047C6
:10476000012901D00120704708B5104B91881B78B2
:10477000994201D0002008BD5378012B08D0022BAC
:10478000F8D1002164220846FDF7B6FB012008BDE0
:10479000518811F480721ABFC1F3C012480A4FF059
:1047A000FF3001F00301FDF725FC00BF222C0020A3
:1047B0000048704748E50010012907D15378012BC4
:1047C00002D19388072B03D0002070470120704747
:1047D0001146A623014A00F0F7BE00BFA0E4001076
:1047E0000346012201481A70704700BF6CE50010B3
:1047F00008B50B68B3F5966F00D008BD00224FF0E6
:10480000FF301146FDF7F6FB70B500F027F90C23D9
:104810004026194CFF22A3670E201849FCF7B0FC74
:1048200032460021164809F097F80125002380211F
:104830001348144A418445700683068782604360AA
:10484000136042F8043C80F8213080F83B3043622A
:104850000D4B4FF00056C360C362803B836209F08A
:104860006BF84FF480320949094B25642846E66409
:10487000C4F89010DA6470BD0000115031060020B9
:10488000C0270020840010500001105010D00100FB
:104890000020115001210E20FCF702BC002202482A
:1048A000114600F0FBB800BFE0270020044B197050
:1048B00021B14FF40032034BC3F89020704700BF82
:1048C0001E2C0020002011500B785B0602D14B7883
:1048D000052B00D070474B88014ADBB2136070474C
:1048E00000001150CB782DE9F04103F0030EBEF12A
:1048F000010FC3F3010057D0002791F802C0314CDB
:104900000CF07F025600898806EBDC1304EB43139E
:104910004FEADC15D876C1F30A0185F0010083F86F
:1049200002C019835870DF70D3006DBB2648043372
:1049300004EB821C03EB0008CCF808801F5062B324
:10494000224BD2001344CCF80430214A3F31136883
:1049500021F03F01BEF1020F08BF49001D48194474
:104960002E4404EB461481421160E36027D883F0A3
:10497000A04383F48013626843EA8E6343F00043EC
:1049800013600120BDE8F0810F4804EB821C034452
:10499000CCF8283040F832704AB900230E4A04EBB4
:1049A0004514E2606360ECE70020BDE8F081D200CE
:1049B00002F1A04202F58012CCF82420C5E7FDF7F1
:1049C00065FB00BFC027002080001050040010507D
:1049D000C82B0020FF0F10500001105008F0ACBF92
:1049E0008C4608B5114607481A460CF07F034FEA7B
:1049F000DC1C0CEB430C00EB4C1000F04FF80120DA
:104A000008BD00BFC027002011F07F0205D100299A
:104A10000CBF02200120064B9866C909054B01EB2B
:104A2000420003EB40104FF40062002108F0ACBFDD
:104A300000201150C027002011F07F0300D17047E3
:104A4000002205485B0003EBD11300EB43106FF429
:104A50000061C27008F098BFC02700204FF080525C
:104A600009480A4908B50A4B02600A609968C943B7
:104A700011F08051FAD14FF48052064808F06CFFD3
:104A80000922054B5A6708BD002002400030024051
:104A900000000240000010500000115000234FF0B1
:104AA000010C10B580F81AC08282C38201610446ED
:104AB00008F046FF20B14FF40032074BC3F89020B6
:104AC000204608F031FF10B10123237710BD2046A6
:104AD000BDE8104008F03CBF002011502DE9F04126
:104AE0004FF000081C4D044642462B781B4F1C4ECD
:104AF0000DE0336813EB421324D0DB68204698475F
:104B000008F101082B785FFA88F2934206D39342AA
:104B1000A2EB0303EDD807EB4313EEE75422002189
:104B2000104808F019FF4FF0FF330E482022041DF3
:104B30004360C4E90133E360FF21BDE8F041143074
:104B400008F00ABF4FF0E023D3F8F03DDB0700D5B3
:104B500000BEBDE8F08100BF1D2C00208CE50010D8
:104B60006423002034250020704700BF704700BF39
:104B70000020704700207047704700BF704700BF9B
:104B8000704700BF704700BF024B5878003818BF0D
:104B90000120704734250020024B1878C0F38000B4
:104BA000704700BF342500202DE9F047DFF8E4907E
:104BB00099F80030FF2B55D10D4600293DD000213A
:104BC00054220646294808F0C7FE0022284C294BEB
:104BD00020461A70FCF75CFC274B28481C60284CC8
:104BE000FCF764FC204601F08FFB264A264B14603C
:104BF00023B12648FFF7F4FD254B18604FF0000A5B
:104C0000224C53462278DFF89080214F0DE03A681D
:104C100012EB431311D05B687BB198470AF1010A8C
:104C200022785FFA8AF3934211D89342EFD39B1A0A
:104C300008EB43135B68002BEFD14FF0E023D3F870
:104C4000F03DDB0700D500BE0020BDE8F087294617
:104C5000304689F80060FFF7D7FD0028EDD03046D8
:104C6000FFF718FE0120BDE8F08700BF34250020C3
:104C70002C2500201F2C002088250020441A00200D
:104C8000301A00208C250020E14700101D2C002048
:104C9000642300204C1A00208CE500102DE9F04F11
:104CA000DFF8B0928BB099F80030FF2B00F0ED8068
:104CB000A24CA34DDFF898A2DFF89CB22668736976
:104CC000EFF3108272B6D3E8CF0F01210028FAD19A
:104CD000C3E8401F0028F6D1BFF35F8FB2613046B2
:104CE00007A901F05BF900237269C2E88F3FB3693D
:104CF00083F31088002800F0C8809DF81D30013B28
:104D0000072B00F26B83DFE803F0A5AF939B8C3594
:104D10000A04089B002BD1D009989847CEE79DF84C
:104D2000201001F07F0605EB460000EBD11090F853
:104D3000343023F0010380F8343090F8343023F01D
:104D4000040380F83430002E00F0A280027D9AF82F
:104D500000309A4280F091807A4B1B6813EB42132B
:104D600000F08C809E699DF82120099B9DF81C0015
:104D7000B047A3E79BF80030002B7FD09BF80030B2
:104D8000013BDBB28BF800309BF8003003F0FF00F2
:104D9000002B93D16A4F9DF81C803B7843F00103B0
:104DA0003B7097F8343060F3000387F8343097F89D
:104DB000343060F3820387F8343097F8353060F38D
:104DC000000387F8353097F8353060F3820387F8B1
:104DD000353000F05BFC9DF8203003F06002602A63
:104DE00066D0402A76D003F01F03012B00F0B68076
:104DF000022B7BD0002B5BD1202A00F0DB81002A24
:104E000056D19DF82130092B52D8DFE813F0A201CA
:104E100094015100B301510087015D01510052011D
:104E2000E5002B78D9077FF549AFFFF7ABFE45E7E3
:104E3000EB78DA077FF542AF0898FFF797FE3DE77A
:104E40002B78D8077FF53AAF2878C0F3C000FFF77A
:104E500097FE33E79DF81C00FFF740FE00F00CFCC6
:104E60009DF82030AB7029E79DF81C00FFF736FE57
:104E700000F002FCFFF782FE20E711D04FF0E023A4
:104E8000D3F8F03DDC0700D500BE0BB0BDE8F08FD5
:104E9000099B9DF821209DF81C0000F00BFC0DE7FC
:104EA000294B5FE7FFF728FB0246002840F0798195
:104EB0004FF0E023D3F8F03DDE0700D500BE9DF8AB
:104EC0001C000021FFF7A0FD80219DF81C00FFF7CA
:104ED0009BFDF3E61D4800F0D9FB0121404608AADE
:104EE000FFF76AFC00287FF4E9AEE8E79DF824109C
:104EF00011F0700FDCD101F07F0607EB4600144B78
:104F000000EBD1101B78007D7600019698424FEAA5
:104F1000D11600964FD340F05F810B4E002A00F06F
:104F20005F81706900F0B2FB01214046736908AAF5
:104F3000984700287FF4C2AEC1E700BF8C2500204F
:104F400034250020642300208CE50010B9470010B0
:104F50001D2C00204C1A00201F2C00209DF824300E
:104F60000F2BACD8AA4A3B441B79127893422DD31D
:104F7000A5D1A84E706900F089FB012140467369F4
:104F800008AA984700287FF499AE9DF8203013F0C6
:104F9000600694D19DF821300A3B012B8FD800F098
:104FA00075FB9DF821300A2B00F0F181404608A9DD
:104FB00000F0F0FA82E6984B1B6803EB4016002ADB
:104FC00000F00E81002E3FF47AAFAAE7924A1668ED
:104FD00016EB4316CED172E77B789DF822609E4295
:104FE00000F04C817B78002B40F0BD817E70002E5C
:104FF00000F04281701EC0B2FFF77EFA034600281F
:1050000000F05E814278022A40F05A81C17903F1B2
:105010000906C1F340121201C1F3801142EA4112A4
:105020003146387820F0300002433A705A88CDF883
:1050300008809A180092009B8B4240F2A3814B7823
:105040000B2B00F0AE814FF0010C042B40F03881A7
:105050000023009A1E46521A92B201926C4ACDF871
:105060000CC012781DE06C4A126812EB461800F072
:105070002781019A05930298D8F810300491984737
:10508000059B08280246049903F1010303D90198FE
:10509000904280F0F8805E4ADEB21278B242C0F0F0
:1050A0000F81B242A6EB0202DDD85A4800EB42184B
:1050B000DFE77B7840468DF81A300DF11A020123A4
:1050C00008A900F081FAF9E5BDF82200030A013BC6
:1050D000020AC0B20E2B3FF6F2AE01A151F823F046
:1050E000F1520010915100102D530010BF4E0010CE
:1050F000BF4E00100F53001091510010BF4E001012
:10510000BF4E0010BF4E0010BF4E0010BF4E00102B
:10511000BF4E0010BF4E0010E352001008A800F070
:10512000BBFA40469DF82210FFF7B8FB3B7843F0EE
:1051300002033B70C2E5BDF82230012B7FF4BFAE05
:105140003B78404623F0080308A93B7000F022FAA0
:10515000B4E540463B789A0802F00202C3F34013DC
:105160001343ADF81A300DF11A02022308A900F01A
:105170002BFAA3E5BDF82230012B7FF4A0AE3B78DB
:10518000404643F0080308A93B7000F003FA95E598
:10519000022A3FF487AEFFF7EDFC024600283FF4F9
:1051A0008EAE4046538808A900F00EFA00287FF41E
:1051B00085AD84E69DF824300F2B3FF680AE144A6F
:1051C0003B441B79127893421DD2134A166816EBA2
:1051D00043167FF4A6AE72E6002A7FF470AE002676
:1051E0009DF8212002F0FD03012B17D0002A7FF447
:1051F0005FAE019B009A3B44134493F83430404621
:10520000C3F34003ADE77FF45AAE024E89E600BF18
:105210001D2C00208CE5001064230020BDF82230F6
:10522000B3B9012A99F8000000F08880FFF7ECFB81
:10523000019B009A3B44134493F8342042F002024D
:1052400083F8342093F8342042F0010283F83420AC
:10525000002E3FF433AD706900F018FA7369012134
:1052600008AA40469847002000F010FA97F8353019
:10527000DF073FF523AD99E6FFF780FC404608A91C
:1052800000F088F91AE5DDF80CC0BCF1010F00F060
:105290009D80BCF1000F00F08A80002391F802800D
:1052A00004E00671D8B2844540F2818008EB030027
:1052B00057FA80F090F804E00133BEF1FF0FF0D010
:1052C0004FF0E023D3F8F03DDA0700D500BE4FF0F1
:1052D000E023D3F8F03DDB0700D500BE00237B7050
:1052E000EDE5FFF765FA024600287FF45AAFE6E5E0
:1052F000FFF7FEF8024600283FF4DAAD40461223DD
:1053000008A900F061F900287FF4D8ACD7E5FFF7D1
:105310002FFC024600283FF4D2AD4046137808A97E
:1053200000F052F900287FF4C9ACC8E5BDF824109C
:10533000FFF7E6F802460028EFD1C0E50293FFF739
:105340007BFB019A009B3A441A4492F83410029B6A
:1053500063F3410182F8341092F8341063F30001D2
:1053600082F8341074E700214046FFF79FFA404668
:10537000FFF734FBBB7840460093FFF7AFFB009B81
:10538000BB7033E6DDF80880FFF7F6FB76E74046B2
:10539000012308A90DF11A028DF81A6000F014F922
:1053A0008CE40B7891F803C019444B784DE63346F2
:1053B0000F480392019100F069FD0E4B01991B7893
:1053C000039AB3421144BFF436AE79E7D8F810001F
:1053D000094B984208BF4FF0020C5EE74FF0E02304
:1053E000D3F8F03DDB077FF569AC00BE66E400BF93
:1053F000482500201D2C0020C55A00102DE9F84F2B
:105400000A9F002A40D00C461E4615464FF0000A5F
:10541000DFF87C90DFF87C8018E0204698F80210D6
:1054200099F800B000F002FDE0B121465846FFF7C0
:1054300059FAF0B1A2780AF1010AD10916BF0B9B03
:105440003A701A702278AA4514441DD06278052A51
:105450000FD1E17801F00301B1420AD1A27812F034
:10546000700FDAD04FF0E023D3F8F03DDA0700D523
:1054700000BE4FF0E023D3F8F03DDB0702D400205C
:10548000BDE8F88F00BEFAE70120BDE8F88F00BF45
:105490004C1A00203425002038B58B7813F0700F9B
:1054A00008D04FF0E023D3F8F03DDB0700D500BE75
:1054B000002038BD074A084B0C46084691781D78F5
:1054C00000F0B4FC0028ECD021462846BDE8384066
:1054D000FFF708BA342500204C1A00200B46064A74
:1054E00006481168DA09343203F07F0302EB430304
:1054F000184400F055BC00BF88250020342500204A
:105500000B46064A06481168DA09343203F07F0375
:1055100002EB4303184400F06DBC00BF8825002057
:105520003425002010B5194801F07F0C00EB4C0029
:1055300000EBD11090F834C01CF0010F08D04FF0F0
:10554000E023D3F8F03DDA0700D500BE002010BDFF
:1055500000F1300494F804C00D484CF0010C0078C0
:1055600084F804C0FFF73CFA0028F0D14FF0E021A6
:10557000227960F300022271227960F382022271A3
:10558000D1F8F03DDB07E1D500BEDFE73425002090
:105590004C1A002030B50B4C8C46A64605460868D0
:1055A00049680023AEE803009CF800102846C94370
:1055B000C4E90233BDE830401A4601F08001FFF72C
:1055C000B1BF00BFF42400202DE9F041284F4FF077
:1055D0000008BE468C46064608684968BA60AEE8D0
:1055E0000300A7F80E801546BCF80620934228BF9A
:1055F0001346BB819AB11C4633B3DDB197F9003035
:10560000402C28BF4024002B29DB4146234630464E
:10561000184AFFF787FF68B10120BDE8F0819CF8C8
:1056200000101346C943304601F08001FFF77AFFAE
:105630000028F1D14FF0E023D3F8F03DDB0700D58F
:1056400000BE0020BDE8F0811A46397801F08001E3
:1056500023463046FFF766FF0028DDD1EAE7224601
:105660002946044808F09CF98021024AF0E700BF6F
:10567000F4240020B42400200022034BC3E90022BC
:10568000C3E902221A617047F4240020014B18611B
:10569000704700BFF424002030B40246044C0025BB
:1056A000234600685168C4E9025530BC03C3704703
:1056B000F424002070B53D4CC90922780646B1EBB0
:1056C000D21F1D4682B017D053B14FF0E023D3F85C
:1056D000F03DDB0702D4002002B070BD00BEFAE747
:1056E0002146FFF7F1F823691BB12246032130461A
:1056F0009847012002B070BD94F90030002B06DB02
:10570000A0680028E7D02A46294908F049F9E0892D
:10571000A168E388284480B229448342E081A160E3
:1057200016D03F2D14D9A28994F90040131A9BB2C8
:10573000402B28BF4023002C27DB90424FF0000174
:1057400031D01B4A3046FFF7EDFE0028D1D1BCE72F
:10575000236923B102213046144A984760B1217869
:105760000023C94330461A4601F08001FFF7DAFEF4
:105770000028AAD00120BDE701463046FFF744F9D2
:1057800080213046FFF740F9B3E7904208D01A462F
:105790000748019308F004F98021054A019BD1E7ED
:1057A00080210022CEE70A46CCE700BFF424002087
:1057B000B42400202DE9F0410446FFF7E5F908B9CB
:1057C000BDE8F081FFF7E8F905460028F8D1C823C5
:1057D00004FB03F3124EF718F9780029F0D01033C8
:1057E0001E44304600F0C8FB3F28E9D92846F97826
:1057F000FFF774FE0028E3D0304600F0BDFB3F28E1
:10580000F97808D9074A284602EBC4124023BDE8BC
:10581000F041FFF787BE2846BDE8F041FFF770BEB4
:10582000EC2300206823002010B50446FFF7ACF9F4
:1058300008B9002010BDFFF7AFF90028F9D1C82240
:10584000034B02FB0433187900F0010010BD00BFC8
:10585000EC230020C82208B5024B02FB003000F008
:1058600071FB08BDFC2300202DE9F8434FF6FF73C0
:10587000C8249A4228BF1A4600FB04F4DFF874805B
:1058800004F110054544064692B2284600F0D0FBCC
:105890000746FFF779F910B93846BDE8F883FFF7F6
:1058A0007BF981460028F7D1A04498F80330002BFB
:1058B000F2D0284600F060FB3F28EDD9484698F822
:1058C0000310FFF70BFE0028E6D0284600F054FB3B
:1058D0003F2898F8031007D9054A4846402302EBB1
:1058E000C612FFF71FFED7E74846FFF709FED3E7CA
:1058F00068230020EC2300202DE9F0410446FFF747
:1059000043F910B90020BDE8F081FFF745F90546DD
:105910000028F7D1C82604FB06F6DFF8648006F1FC
:1059200024074744384600F00DFB0028EAD0B04475
:10593000284698F80210FFF7D1FD0028E2D00F4E5C
:10594000384606EBC4163146402200F071FB98F849
:105950000210044668B1034632462846FFF7E2FDCE
:1059600050B94FF0E023D3F8F03DDB07CAD500BEB5
:10597000C8E7FFF7C5FDC5E72046C4E7A823002018
:10598000EC23002038B54FF6FF75C823AA4228BF84
:105990002A460B4C92B203FB00440546204600F019
:1059A00005FC034620461C4600F0CCFA3F2801D8EF
:1059B000204638BD2846FFF79FFF204638BD00BF70
:1059C00010240020C82208B5024B02FB003000F072
:1059D000D3FA08BD10240020F0B5002483B0C822FB
:1059E0000021174807F0B8FFFF234FF4E1310822E8
:1059F0001448047012480094074643718160827312
:105A000000F1380101234022103000F06BFA01232D
:105A1000402207F17801009307F1B80607F124004E
:105A200000F060FA07F1C0053046FBF731FD28466B
:105A3000FBF72EFDC7E90746C7E90C5403B0F0BDDC
:105A4000EC230020E82300200A4A116B136A61B19D
:105A50003BB10023C2E90C33D36100231362012060
:105A600070470120C2E90C337047002BF7D0D16199
:105A7000F3E700BFEC230020002210B50E4C0F48C6
:105A8000237802600271DA0707D59B070BD5BDE8C2
:105A9000104001210A4800F053BC103000F034FCE3
:105AA00023789B07F3D4064800F02EFCBDE8104095
:105AB0000121034800F044BCE8230020EC2300202F
:105AC00010240020F0B54B7983B0022B02D18B79E2
:105AD000022B03D00025284603B0F0BD274FBB782A
